:020000040800F2
:1000000000000220990100089501000895010008F0
:100010009501000895010008950100080000000006
:100020000000000000000000000000009501000832
:1000300095010008000000009501000895010008E6
:100040009501000895010008950100089501000838
:100050009501000895010008950100089501000828
:100060009501000895010008950100089501000818
:100070009501000895010008950100089501000808
:1000800095010008950100089501000895010008F8
:1000900095010008950100089501000895010008E8
:1000A00095010008950100089501000895010008D8
:1000B0009501000895010008000000009501000866
:1000C00095010008950100089501000895010008B8
:1000D00095010008950100089501000895010008A8
:1000E00095010008950100080000000000000000D4
:1000F0000000000000000000000000000000000000
:1001000000000000950100080000000095010008B3
:100110009501000800000000950100089501000805
:100120009501000895010008950100089501000857
:1001300095010008950100089501000800000000E5
:100140009501000895010008950100089501000837
:100150009501000895010008950100089501000827
:1001600095010008950100089501000800000000B5
:100170009501000895010008950100089501000807
:1001800095010008950100089501000895010008F7
:1001900095010008FEE700BF0B4A0C48801A07D003
:1001A0000B4B184413F8011B02F8011B9842F9D1BC
:1001B000084A094B9A4204D0002103F8011B9342DC
:1001C000FBD100F00BB800BF0000002004000020AD
:1001D000E40100080800002004000020002070470F
:0401E0000A00000011
:0401E4000A0000000D
:040000050800019955
:00000001FF
